:020000040800F2
:1000000020360020914D000891020008930200085C
:1000100095020008970200089902000800000000FD
:10002000000000000000000000000000490100087E
:100030009B020008000000008D010008014B000831
:10004000AB4D0008AB4D0008AB4D0008BD4A0008A1
:10005000AB4D0008AB4D0008AB4D0008AB4D0008A0
:10006000AB4D0008AB4D0008AB4D0008AB4D000890
:10007000AB4D0008AB4D0008AB4D0008AB4D000880
:10008000AB4D0008AB4D0008AB4D0008AB4D000870
:10009000AB4D0008AB4D0008AB4D0008AB4D000860
:1000A000AB4D0008AB4D0008AB4D0008AB4D000850
:1000B000430D00082B0D0008AB4D0008AB4D0008A8
:1000C000AB4D0008AB4D0008AB4D0008AB4D000830
:1000D000AB4D0008854C0008AB4D0008AB4D000847
:1000E000AB4D0008AB4D0008AB4D0008AB4D000810
:1000F000AB4D0008AB4D0008AB4D0008AB4D000800
:10010000AB4D0008AB4D0008AB4D0008AB4D0008EF
:10011000AB4D0008AB4D0008AB4D0008AB4D0008DF
:10012000AB4D0008AB4D0008AB4D0008AB4D0008CF
:10013000DFF810D009F0A8FB00480047E1010008F3
:10014000AFF3008020360020224B19680868B0E821
:10015000F00F80F30988BFF36F8F4FF0000080F33A
:1001600011884EF00D0E7047000000000648006830
:10017000006880F3088862B661B6BFF34F8FBFF3A3
:100180006F8F00DF00BF00BF08ED00E0EFF30980D4
:10019000BFF36F8F0F4B1A6820E9F00F106008B59E
:1001A0004FF0500080F31188BFF34F8FBFF36F8F74
:1001B00007F0B8FB4FF0000080F31188BDE808405D
:1001C00019680868B0E8F00F80F30988BFF36F8FF3
:1001D000704700BFE4000020EFF305807047000087
:1001E00010B54FF4407004F0E5FD04F093FC4FF4BB
:1001F000E13004F0FBFC00F0D3FC00F0F9FD04F06A
:10020000F3FB12A009F0CEFB02F049FF04F042F824
:1002100003F0D4FC03F072FA03F084FA41F61F41B4
:100220000A2000F050FD0121880705F07DFD03F054
:1002300044FA09490870014608A009F0B3FB0DA073
:1002400009F0B0FB00F0F7FB002010BD756172747F
:10025000206F6B210D0A0000000000206D707536C4
:10026000303530B5C44944BAC5CEAAA3BA25640D09
:100270000A000000D5E2CAC7D2BBB8F6467265656F
:1002800052544F53B5C4CAB5D1E90D0A000000005D
:100290007047FEE7FEE7FEE7FEE770470CB5002279
:1002A0004C4800920192016841F4803101604FF4A2
:1002B000A063016801F4003101910099491C00918B
:1002C000019911B900999942F3D10168890333D595
:1002D0000121019140490A6842F010020A600A684F
:1002E00022F003020A600A6842F002020A604168D2
:1002F000416041684160416841F48061416041680A
:1003000021F47C114160416841F4E81141600168C9
:1003100041F08071016001688901FCD5416821F0DC
:1003200003014160416841F0020141604168C1F34D
:1003300081010229FAD10CBD01920CBD254810B5EE
:10034000016841F0010101604168244A11404160A7
:100350000168234A11400160016821F48021016095
:10036000416821F4FE0141604FF41F018160FFF7F5
:1003700095FF1C494FF00060086010BD154A10B58C
:100380005068194B10F00C01184803D0042901D013
:10039000082901D0036012E05168536801F470111C
:1003A0004FF0020413F4803F04EB914102D05368F4
:1003B0009B0301D50E4B00E00B4B59430160516884
:1003C0000A4AC1F30311121D515C0268CA4002605F
:1003D00010BD000000100240002002400000FFF8A5
:1003E000FFFFF6FE08ED00E000127A000400002096
:1003F00000093D0008B50A25F74C04F00FF901216A
:10040000084604F03EF8F5A009F0CCFA0095002368
:1004100001220721A06A06F003F901280DD103F09B
:10042000CDFB00231A461946206A06F047FB606997
:1004300007F008FB002007F09FFA052007F0A6F957
:10044000DBE708B5ECA009F0ADFA0A270026E24D7B
:1004500004F07FF8F1A009F0A5FA0023052219465F
:10046000286A06F030FC01280AD131466E72012359
:10047000AE720A46184603F0C1FFF1A009F092FAE5
:100480000097002301220721A86A06F0C9F8044654
:10049000012813D1687A032810D103F08FFB0023C1
:1004A0001A461946286A06F009FBEFA009F07AFA05
:1004B000686907F0C7FA002007F05EFAC4F3410448
:1004C000012C37D1A87A0023C2B2C1B2012003F0B7
:1004D00095FF0021084603F0D4FF687A401C40B223
:1004E0006872A97A491C49B2A972022901DD022168
:1004F000A972032801DD03206872C0B203280AD163
:100500000121002003F0BDFFA87A0023C2B2C1B2CE
:10051000012003F073FF95F9090003280AD2002196
:10052000084603F0AEFFA87A0123C2B2C1B2184652
:1005300003F064FF022C23D1687A0023C2B2C1B257
:10054000012003F05BFF0021084603F09AFF95F9B4
:100550000900032802D0A97A491EA972401E40B2A0
:100560006872002800DA6E7295F90A00002800DA35
:10057000AE72687A0123C2B2C1B2184603F03EFFE0
:10058000052007F003F963E7934D08B5A86907F064
:10059000F3F9E86907F0F0F9002003F0EDFE00221E
:1005A00001231146104603F029FF04264FF0FF3ABD
:1005B0004FF0020900274FF0030800230A221946D2
:1005C000286A06F080FB01280BD1287A03F0D4FEBC
:1005D0006A7929790123002003F010FFACA009F00B
:1005E000E1F9CDF800A0002301220721A86A06F056
:1005F00017F80446012823D1287998B903F0DEFAC8
:1006000000231A461946286A06F058FAAAA009F0EB
:10061000C9F9A86907F016FAB2A009F0C3F90020D9
:1006200007F0AAF9287901280AD103F0C7FAB7A080
:1006300009F0B8F9E86907F005FA002007F09CF91D
:10064000C4F34104012C4CD1EF7100236A7929795C
:10065000184603F0D3FE2879401C41B2297168790D
:10066000401C40B26871042900DD2E71022802DDB1
:1006700085F8059000E003D1A87900F10100A87188
:1006800095F90600032800DDAE7195F90600801E7D
:1006900002280FD2687902280CD1287A401C40B277
:1006A0002872022801DD85F8089003F087FA287A7D
:1006B00003F062FE95F90700009095F9083095F96E
:1006C000052095F904109D4809F06CF9A8790428D3
:1006D00001D185F806806A7929790123002003F089
:1006E0008DFE022C49D1AF7100236A792979184611
:1006F00003F084FE2879401E41B229716879401EBA
:1007000040B26871002900DA2F71002801DA6F7198
:1007100000E003D1E87900F10100E87195F90700E4
:10072000032800DDEE7195F90700801E02280DD226
:10073000687958B9287A401E40B22872002800DA39
:100740002F7203F03BFA287A03F016FE6A792979B2
:100750000123002003F052FE95F90800009095F95E
:10076000063095F9052095F90410754809F01AF935
:10077000E879042801D185F80780052007F006F8FC
:100780001BE7154C002520786178884207D1257039
:100790006CA009F007F90121A06A05F0A8FE2078F5
:1007A000A178884207D125706AA009F0FBF80221E0
:1007B000A06A05F09CFE2078E178884207D1257078
:1007C00068A009F0EFF80421A06A05F090FE05206A
:1007D00006F0DCFFD7E7000018000020BDF8C8EBEA
:1007E000C1CBCDD3C2DDD2C7CAFDBEDDCFD4CABE18
:1007F000C8CECEF1210D0A00BDF8C8EBC1CBCAB1FD
:10080000BCE4BDE7C3E6CFD4CABEC8CECEF1313119
:10081000313131313131210D0A000000BDF8C8EB12
:10082000C1CBCAB1BCE4BDE7C3E6CFD4CABEC8CE13
:10083000CEF1A3ACD2D1D4DAC6E4D6D0210D0A00D1
:10084000BDF8C8EBCAB1BCE4CFD4CABEC8CECEF1A5
:10085000A3ACB6FED6B5D0C5BAC5C1BFD2D1B1BB67
:10086000BBF1C8A1210D0A00D4DACAB1BCE4CFD4CF
:10087000CABEC8CECEF1D6D0A3ACCACDB7C5D2BB06
:10088000B8F6B6FED6B5D0C5BAC5C1BF210D0A00AF
:10089000BDF8C8EBB2CBB5A5CFD4CABEBAAFCAFDBE
:1008A000A3ACB6FED6B5D0C5BAC5C1BFD2D1B1BB17
:1008B000BBF1C8A1210D0A00B2CBB5A5CFD4CABEE9
:1008C000BAAFCAFDB9D2C6F0A3ACD2AABDF8C8EB84
:1008D000CAB1BCE4BDE7C3E6C8CECEF1C1CB210DA1
:1008E0000A000000B3C9B9A6C7D0BBBBA3ACCAB14C
:1008F000BCE4BDE7C3E6CFD4CABEBAAFCAFDD2D10D
:10090000BEADBDF8C8EB210D0A000000B2CBB5A505
:10091000CFD4CABEBAAFCAFDB9D2C6F0A3ACD2AA70
:10092000BDF8C8EBCDD3C2DDD2C7CAFDBEDDCFD482
:10093000CABEC8CECEF1C1CB210D0A00E0C9000865
:1009400028CA00084B455931B1BBB0B4CFC20D0A1B
:10095000000000004B455932B1BBB0B4CFC20D0A04
:10096000000000004B455933B1BBB0B4CFC20D0AF3
:10097000000000007CB508F081F90322002101206D
:1009800005F0CCFF384C206210B138A009F00AF80D
:1009900004210022084605F0C1FF606210B13DA0AD
:1009A00009F000F805F096FDA062606A10B141A060
:1009B00008F0F8FF2C4804251030CDE90050002342
:1009C000402244A1AFF2452006F01EFD44A008F0ED
:1009D000E9FF254800231430CDE90050802245A1CD
:1009E000AFF25B4006F010FD47A008F0DBFF1E48A9
:1009F00003251830CDE900500023C8224AA1AFF2E8
:100A0000BD5006F001FD4DA008F0CCFF16480023B4
:100A10001C30CDE90050802250A1AFF2276006F0D3
:100A2000F3FC54A008F0BEFFE06806F018FDBDE836
:100A30007C4008F03DB91CB50B4901200C31002366
:100A4000CDE90001802253A1AFF2D70006F0DCFC13
:100A5000012801D107F074F8FEE703480021C162C4
:100A600001634163704700001800002042696E6115
:100A7000727953656D5F48616E646C65B6FED6B57C
:100A8000D0C5BAC5C1BFB4B4BDA8B3C9B9A6210DFC
:100A90000A000000546573745F5175657565CFFB7E
:100AA000CFA2B6D3C1D0B4B4BDA8B3C9B9A6210DE5
:100AB0000A0000004576656E745F48616E646C657F
:100AC000CAC2BCFED7E9B4B4BDA8B3C9B9A6210D4A
:100AD0000A0000004B65795F5461736B00000000F1
:100AE000B4B4BDA84B65795F5461736BB3C9B9A643
:100AF000210D0A00446973706C61795F4D656E75F4
:100B00005F5461736B000000B4B4BDA84469737096
:100B10006C61795F4D656E755F5461736BB3C9B974
:100B2000A6210D0A00000000446973706C61795FB2
:100B300054696D655F5461736B000000B4B4BDA867
:100B4000446973706C61795F54696D655F5461735A
:100B50006BB3C9B9A6210D0A000000004469737087
:100B60006C61795F4D5055363035305F5461736B31
:100B700000000000B4B4BDA8446973706C61795F73
:100B80004D5055363035305F5461736BB3C9B9A6DB
:100B9000210D0A0073746172745F7461736B0000DD
:100BA00038B50121042004F09CFB0120ADF80000C1
:100BB00010248DF8034003202B4D8DF80200694668
:100BC000284604F0A6F90121284604F00CFA022177
:100BD000ADF800106946284604F09BF9022128462A
:100BE00004F001FA0420ADF800006946284604F03C
:100BF00090F90421284604F0F6F90820ADF8000029
:100C00006946284604F085F90821284604F0EBF9E6
:100C1000ADF800406946284604F07BF910212846CB
:100C200004F0E1F92020ADF800006946284604F000
:100C300070F92021284604F0D6F94020ADF80000D4
:100C40006946284604F065F94021284604F0CBF9AE
:100C50008020ADF800006946284604F05AF980214A
:100C6000284604F0C0F938BD000801407FB50D46A4
:100C700004460121022004F03DFBADF80440ADF82C
:100C800000500024524DADF80640ADF802406946D0
:100C9000284604F0A1FD01221146284605F059F826
:100CA0001D218DF80C1004208DF80D008DF80E40DC
:100CB00001208DF80F0003A804F081F801212846D7
:100CC00005F032F87FBD7FB50D4604460121084688
:100CD00004F010FBADF80440ADF8005000244FF0D4
:100CE0008045ADF80640ADF802406946284604F05C
:100CF00073FD0121284605F04CFA012241212846C6
:100D000005F027F80121284605F00EF81C208DF883
:100D10000C008DF80D4003208DF80E0001208DF899
:100D20000F0003A804F04BF87FBD10B5284C01213B
:100D3000204605F022FA2046BDE81040012105F0CA
:100D400028BA2DE9F0414FF080480121404605F0D6
:100D500014FA012836D11F4C05212088B0FBF1F28E
:100D600001FB120058BB1C4F4FF40041384604F001
:100D700026F90025A61C48B17914384604F01FF95D
:100D800020B1B914384604F01AF900B93570114889
:100D9000801C00F074F87078104930B1012806D03A
:100DA000022806D0032806D008E00D4804E00D48CC
:100DB00002E00D4800E00D4800780870258020888A
:100DC000401C20804046BDE8F041012105F0E1B91A
:100DD00000040040520000200008014018000020DC
:100DE00019000020500000201A0000201B000020E5
:100DF00038B50121042004F074FA0121042004F024
:100E000070FA0121042004F06CFA0121042004F09E
:100E100068FA0121084604F064FA01214B4804F005
:100E200003F901214A4804F0FFF848208DF8030037
:100E30004FF40040474CADF800006946204604F0EE
:100E400068F84FF48041ADF800106946204604F080
:100E500060F86114ADF800106946204604F059F8B6
:100E6000A114ADF800106946204604F052F838BDD0
:100E700001210170042141700021418070472DE95A
:100E8000F05F0446418800780026334D4FF0040996
:100E9000012709B120B11EE010B184F801901AE0D9
:100EA000DFF8B0804FF4004A27705146404604F006
:100EB00086F84FF4005B60B15946404604F07FF875
:100EC00038B14FF48051404604F079F808B1012060
:100ED00000E0002060B16088001F92282DD22878A1
:100EE00010B3687810B3A87810B3E87810B326E090
:100EF00060885146401C60804446404604F05FF8DC
:100F000070B15946204604F05AF858B14FF4805158
:100F1000204604F054F8002800D1EE70BDE8F09FA0
:100F20002E70FBE7AE70F9E7667008E0677006E0C8
:100F3000022000E00320607001E084F801902F702F
:100F40006F70AF70EF706680E8E70000000230005D
:100F5000000430000008014058000020F8B5FA4CA9
:100F60000023224694F82460D2E900125D1E56B197
:100F700090B102200DE01078C97B6B46012202F08F
:100F8000B5F960B90DE0A67A4EB128B1607C58B9C8
:100F900001208DF80000EEE78DF80030EBE72846E1
:100FA000F8BD9DF8000060740020F8BD38B500243D
:100FB000E54D12E02868C27AA2420CD0407DA042E2
:100FC00009D008786B460122214602F0B8F910B129
:100FD0004FF0FF3038BD641CE4B269680879A04264
:100FE000E8D8002038BDD84A30B40B4611684FF01D
:100FF000FF34CD7A854206D0497D814203D05168C5
:101000000A79824202D8204630BC70470C780146EB
:10101000204630BC012202F092B938B5CA4D0446D0
:1010200095F82300A04201D1002038BD0CB130203A
:1010300000E000208DF80000A87C28B19DF8000099
:1010400040F002008DF8000095F8220028B19DF8CC
:10105000000040F080008DF8000028686B460122F7
:10106000017D6868007802F041F910B14FF0FF305F
:1010700038BD85F82340D7E7F8B5044610F0700F67
:101080004FF0000601D0012004E014B18DF800609B
:1010900002E040208DF80000AB4D6B46012228682D
:1010A000817C6868007802F021F94FF0FF3760BB5F
:1010B0009DF8000020F0400028738DF80060600665
:1010C00002D404208DF80000A00605D49DF800008D
:1010D00040F002008DF80000E00605D49DF8000005
:1010E00040F001008DF80000200705D49DF80000B5
:1010F00040F038008DF8000028686B460122C17C62
:101100006868007802F0F2F810B1AE723846F8BDA7
:1011100024B1082C02D00020FFF77FFFAC722E759F
:10112000322003F02DFD0020F8BDF8B5864D0446B1
:10113000A87CA04201D10020F8BD83484FF0FF36C3
:101140006B46D0E900104FF001020979007834B302
:1011500002F0F5F8D8BB9DF800006B4620F02000A7
:101160008DF800002868012201796868007802F093
:10117000BDF860BB032003F003FD02208DF80000E2
:1011800095F8220070B382202AE028686B4601227D
:10119000017D6868007802F0A9F8C0B92DE002F07E
:1011A000CEF8A0B9A87AC0079DF8000002D040F0A0
:1011B000200001E020F020008DF8000028686B4638
:1011C000012201796868007802F090F808B1304691
:1011D000F8BD032003F0D4FC95F8220000B1802074
:1011E0008DF8000095F823000028CED09DF800006F
:1011F00040F030008DF80000C7E7AC749BE7F8B50D
:10120000514D4FF0FF36A87A00287CD000248DF88D
:10121000004028686B460122C17B6868007802F0B4
:1012200065F800286FD128686B460122417968680B
:10123000007802F05BF8002865D128686B4601222F
:1012400001796868007802F051F800287AD195F8A1
:101250002400C8B30C208DF8000028686B460122DA
:1012600001796868007802F041F800286AD1C0204E
:101270008DF80000A87AC00702D0E0208DF80000A9
:1012800028686B46012201796868007802F02EF820
:10129000002857D1687C18B102208DF8000001E0C9
:1012A0008DF8004028686B460122C17B6868007891
:1012B00002F01CF838BB8DF8004028686B4601220C
:1012C00041796868007839E0FFE704208DF8000074
:1012D00028686B46012201796868007802F006F8F8
:1012E00088B9A87C80B9A87AC0070DD060208DF895
:1012F000000028686B46012201796868007801F0D7
:10130000F5FF00B902E01DE04020F0E7687C18B16D
:1013100001208DF8000001E08DF8004028686B4640
:101320000122C17B6868007801F0E0FF50B92868AD
:10133000054B0122417968681033007801F0D6FF2F
:10134000002800D03046F8BD5C0000202DE9F041B7
:10135000FF4D20F00104002695F8240010B1002074
:10136000BDE8F081A87A4FF0FF3838B120402F7CDB
:101370002874A04200D0464624B901E04046EFE779
:10138000287D40B10120FFF7E9FD3CB1FFF737FFB1
:1013900020B12F74F2E70020FFF7E0FD3046DFE7D1
:1013A00038B5EB4C4FF0FF35A17A31B3BC2801D3EF
:1013B000012010E0622801D302200CE02A2801D38A
:1013C000032008E0142801D3042004E00A2801D3F4
:1013D000052000E006208DF80000E07A9DF800105E
:1013E000884201D1002038BD20686B4601228178F7
:1013F0006068007801F07AFF08B1284638BD9DF892
:101400000000E072EEE72DE9F84304464FF0FF39A3
:10141000282844D80727CE4D00267CB10120FFF7AD
:10142000FCFD20208DF800004FF00108012C17D0A2
:10143000052C18D88DF8018005201FE00020FFF74B
:10144000ECFD8DF800608DF8017028686B46022273
:10145000817C6868007801F049FF00BB2E7529E0A7
:101460008DF80160E8E7142C04D802208DF8010003
:101470000A2003E003208DF801001420FFF790FFFD
:101480009DF801006B4607EB80108DF8010028687D
:101490000222817C6868007801F028FF10B148467C
:1014A000BDE8F8830820A8722E7385F81480002008
:1014B000FFF74CFF0020F3E7F8B5A54D04464FF0C9
:1014C000FF37A87A28B395F8240010BB287D48B1CF
:1014D0002CB1282C03D8E0B2FFF795FF24E00020C0
:1014E000FFF791FF4FF47A76042C01D2042402E036
:1014F000B44200D93446B6FBF4F0401E8DF800002B
:1015000028686B46012241786868007801F0EEFE99
:1015100008B1384617E79DF80000401CB6FBF0F014
:10152000E8814008FFF73CFF00200CE738B5884C05
:101530004FF0FF35A17A19B3022806D0042806D04F
:1015400008280ED010281BD10DE0002000E0082054
:101550008DF80000607A9DF80010B0EBD10F04D038
:1015600005E01020F4E71820F2E7002038BD2068DD
:101570006B460122C1796068007801F0B7FE08B1BE
:10158000284638BD9DF80000C0086072EDE738B508
:101590006F4C4FF0FF35A17A31B3FA2809D0B0F57E
:1015A000FA7F08D0B0F57A7F0FD0B0F5FA6F1BD173
:1015B0000DE0002000E008208DF80000207A9DF862
:1015C0000010B0EBD10F04D005E01020F4E7182094
:1015D000F2E7002038BD20686B46012281796068FF
:1015E000007801F083FE08B1284638BD9DF8000060
:1015F000C0082072EDE72DE9FC41554C80208DF8A4
:10160000000020686B460122817C6068007801F050
:101610006DFE4FF0FF37002832D1642003F0B0FA9E
:1016200000258DF8005020686B460122817C60689F
:10163000007801F05BFE002870D120686B4606221E
:10164000817D6068007801F07AFE002866D19DF8FF
:1016500005009DF80310C007400F01F0010140EAAA
:1016600041019DF801004FF0010600F00100014327
:1016700009D0012905D0022915D036A008F092F929
:101680004CE0E67410E020686B460122C178606887
:10169000007801F054FE40BB9DF8000010F00F00F0
:1016A00020D0042822D0E574FF2004F80A0F4FF65A
:1016B000FF7104F8020C04F8010C6070A180A071A5
:1016C0002072A67026766576E572A572E5602561C2
:1016D0006561A576E576A5834FF4FA60FFF757FFBD
:1016E00018B907E0254808F05DF917E024A008F0D4
:1016F00059F9C6E70220FFF719FF78B92A20FFF74A
:101700004FFE58B93220FFF7D7FE38B90020FFF757
:101710001DFE18B90020FFF708FD10B13846BDE8DE
:10172000FC810020FFF7A8FC0020F8E770477CB59B
:10173000044607484FF0FF35817A11F0700F32D020
:10174000016840686B46097B0078062228E00000AB
:101750005C000020556E737570706F727465642044
:10176000736F6674776172652070726F64756374ED
:10177000207265762025642E0A00000070CA0008D9
:1017800048616C662073656E7369746976697479F3
:10179000207061727420666F756E642E0D0A0000F1
:1017A00001F0CDFD08B128467CBDBDF8000040BA6F
:1017B0002080BDF8020040BA6080BDF8040040BA45
:1017C000A08000207CBD7CB50446FE484FF0FF356C
:1017D000817A090708D5016840686B46497B007823
:1017E000062201F0ACFD08B128467CBDBDF8000022
:1017F00040BA2080BDF8020040BA6080BDF8040005
:1018000040BAA08000207CBDF8B5EE4C07464FF0F2
:10181000FF35A07A40B120686B460222817B606868
:10182000007801F08CFD08B128468CE5BDF8000079
:10183000646840BA05B2E08807F030FE0646B4F9A5
:10184000080007F022FE0446284607F01EFE214647
:1018500007F080FC314607F0B5FCDB4907F028FCB7
:10186000102107F0EDFC07F01EFE386000206AE54D
:101870002DE9FC4104004FF0FF3862D0206820B908
:10188000606810B9A06800285CD0CE4F03226B4678
:1018900078681146007801F052FDE0BB9DF8001019
:1018A000082000EB111101F00F029DF801109DF8C6
:1018B000023000EB111100EB1310236840325B0083
:1018C00093FBF2F216B2626801F00F015200403150
:1018D00092FBF1F10DB2A16800F00F004900403019
:1018E00091FBF0F004B2786806226B46007811464E
:1018F00001F025FD78B9BDF80000BDF8021040BA2E
:10190000BDF80420304449BA52BA030A294422449B
:101910008DF8003000E014E08DF80100080A8DF821
:101920000200100A8DF804008DF803108DF80520D0
:10193000786806226B460078114601F0D7FC002833
:1019400000D04046EBE69F49097A39B1012907D01A
:1019500002290AD003290BD0002103E0FA2101E07B
:101960004FF4FA710180002070474FF47A71F9E763
:101970004FF4FA61F6E7934A517A41B1012908D050
:1019800002290FD003290FD04FF0FF3070470221FA
:1019900000E004210170D17C11B10178490001708F
:1019A000002070470821F5E71021F3E78549C97A3F
:1019B000072913D2DFE801F01204060A0C0E10000A
:1019C000BC2100E062210180002070472A21FAE753
:1019D0001421F8E70A21F6E70521F4E70021F2E7F0
:1019E000784991F8242012B14FF0FF307047C9892F
:1019F00001800020704700210180481E70474FF091
:101A0000FF3070476F49097A41B1012908D0022996
:101A10000AD003290AD04FF0FF3070476B4900E02D
:101A20006B490160002070476A49FAE76A49F8E7A4
:101A3000644A517A41B1012909D0022911D0032900
:101A400012D04FF0FF3070474FF4804101E041F673
:101A50009C710180D17C11B101884908018000206E
:101A600070474FF48051F4E74FF40061F1E75549B6
:101A7000097C0170002070475249897A01B1012127
:101A800001700020704738B505464E484FF0FF34CE
:101A9000817A41B1016840686B46097C0078022276
:101AA00001F04DFC08B1204638BDBDF8000040BA39
:101AB0002880002038BD2DE9FE4F884641498146E7
:101AC000002491F824001E4625464FF0FF3BD0BB72
:101AD00000203070887AB0B3087CA0B3420600D5ED
:101AE0000224820600D5A41CC20600D5A41C00074F
:101AF00000D5A41D8A460968DAF804006B46897A85
:101B00000078022201F01BFCE8B9BDF8000047BADA
:101B1000A74263D3DAF804004188B7EB510F13D919
:101B2000DAF8001000786B46497C012201F007FCCE
:101B300048B99DF80000C00606D5FFF760FB6FF0BE
:101B40000100BDE8FE8F0AE0DAF80010DAF80400C0
:101B50006B46C97A0078224601F0F1FB08B158467D
:101B6000EFE7B7FBF4F00C99401E087000203070CE
:101B7000A4B39AF8101050460A07694613D5BDF869
:101B80000020062552BAA8F80020BDF8022052BA5B
:101B9000A8F80220BDF8042052BAA8F80420327830
:101BA00042F008023270A5421AD0027C520617D5C4
:101BB0004A19128852BAA9F80020327842F040023D
:101BC00032700CE05C00002000000C420000034377
:101BD0000000834233330342333383411EE0AD1CA4
:101BE000A5420CD0027C920609D54A19AD1C128878
:101BF00052BAA9F80220327842F020023270A5428F
:101C00000CD09AF81000C00608D54819008840BAD0
:101C1000A9F80400307840F010003070002090E700
:101C20002DE9F843FA4E0546174696F824008946F2
:101C30004FF0FF3888B3B07A78B330686B46022231
:101C4000817A7068007801F07AFB30BBBDF8000043
:101C500044BAAC4202D2002038701EE0706841885D
:101C6000B4EB510F10D9316800786B46497C0122E2
:101C700001F065FB88B99DF80000C00604D5FFF7A8
:101C8000BEFA6FF001000BE43068EAB24B46C17A4D
:101C90007068007801F053FB08B140460BE4B4FBD8
:101CA000F5F0401E3870002005E4D94981F8220083
:101CB000002070472DE9FE4F05460120D44E8DF8D7
:101CC00000004FF000088DF8018030680C46174680
:101CD000817C70686B460222007801F007FB4FF0B0
:101CE000FF3A00287AD1C82002F04AFF8DF8008020
:101CF00030686B460122C17B7068007801F0F6FA0B
:101D00000028EFD130686B46012241797068007875
:101D100001F0ECFA0028E5D130686B460122817CA5
:101D20007068007801F0E2FA0028DBD130686B4679
:101D30000122C17D7068007801F0D8FA0028D1D165
:101D400030686B46012201797068007801F0CEFAA4
:101D50000028C7D14FF00C098DF8009030686B4611
:101D6000012201797068007801F0C0FA002835D1AD
:101D70000F2002F005FFB06A6B460122407A8DF811
:101D80000000306881787068007801F0AFFA0028B0
:101D900024D1B06A6B460122007A8DF800003068C9
:101DA00041787068007801F0A1FA002873D1B06A18
:101DB000807A0FB140F0E0008DF8000030686B468B
:101DC000012281797068007801F090FA002862D1D0
:101DD0002FB1B06AC07A40F0E00001E04AE018207C
:101DE0008DF8000030686B460122C1797068007878
:101DF00001F07CFAF0BB17B1C82002F0C1FE402010
:101E00008DF8000030686B46012201797068007817
:101E100001F06CFA70BB78208DF8000030686B46DA
:101E2000012241797068007801F060FA10BB32201D
:101E300002F0A6FE8DF80080306847466B46417977
:101E400070680122007801F051FA98B93168706821
:101E5000B046897A00786B46022201F070FA48B9E0
:101E6000BDF80000AF6040BAB0FBF9F06F60C6B2D9
:101E70002F6000E00FE0A76067602760002738E070
:101E8000D8F80010D8F804006B46C97A00780C2204
:101E900001F055FA08B1504653E6BDF8000023683A
:101EA00040BA02B2BDF802001A4440BA01B2BDF80D
:101EB00004002260626840BA11446160A16800B207
:101EC0000844A060BDF806002B6840BA02B2BDF815
:101ED00008001A4440BA01B2BDF80A002A606A68D4
:101EE00040BA11446960A96800B208447F1CFFB27F
:101EF000A860B742C4D328688322C117090441EA05
:101F000010410004002307F04FF83246002307F089
:101F10004BF8286068688322C117090441EA104120
:101F20000004002307F040F83246002307F03CF895
:101F30006860A8688322C117090441EA10410004BF
:101F4000002307F031F83246002307F02DF8A8608F
:101F500020684FF40065C117090441EA10410004EC
:101F60002A46002307F020F83246002307F01CF829
:101F7000206060682A46C117090441EA1041000444
:101F8000002307F011F83246002307F00DF86060D7
:101F9000A0682A46C117090441EA10410004002341
:101FA00007F002F83246002306F0FEFFA06000288A
:101FB00002DDA0F5803001E000F58030A060002057
:101FC000BFE538B5124C94F8241081421DD000258D
:101FD000E8B194F82500E8B10020FEF7BFFF00202B
:101FE000FFF7A3F8E08CFFF767FA8DF80050606800
:101FF0006B4601220078232101F078F9012084F852
:102000002400FEF7ABFFFFF7FAF8002038BD04E02C
:102010005C0000204FF0FF30F8E70020FEF79EFF45
:10202000207C8DF8000060686B4601220078232137
:1020300001F05CF984F82450E5E72DE9F047FA4E09
:1020400082468AB096F824000F4620B10020FFF7A0
:10205000B8FF012500E0002507A8FFF774FC06A8DB
:10206000FFF789FC09A8FFF7A1FC08A8FFF7B8FC57
:1020700096F80A9096F810800024002239465046BF
:10208000FFF718FE10B1641C022CF6DB022C1AD0EC
:102090000024012203A96846FFF70CFE10B1641C5E
:1020A000022CF6DB022C0ED003A9384600F0BEF954
:1020B000C7B26946504600F0F0F910F0FF0F4FF03C
:1020C000000402D002E0002403E001240FB944F030
:1020D0000204FF2030727072F0724FF6FF71F181CE
:1020E000B072307401203073BDF81C00FFF74FFA56
:1020F0009DF81800FFF71AFABDF82400FFF750F911
:10210000BDF82000FFF7D8F94846FEF7B5FF404676
:10211000FFF71CF915B10120FFF753FF0AB0204665
:10212000BDE8F087F8B517000D464FF0FF341FD01B
:10213000BD4EB17AE1B1010A8DF80010C0B28DF840
:102140000100411970684289914211D831680078C4
:102150006B46097E022201F0C9F848B93068EAB23C
:102160003B46417D7068007801F0C0F8002800D03F
:102170002046F8BDF8B517000D464FF0FF341FD0CC
:10218000A94EB17AE1B1010A8DF80010C0B28DF804
:102190000100411970684289914211D83168007874
:1021A0006B46097E022201F0A1F848B93068EAB214
:1021B0003B46417D7068007801F0C1F8002800D0EE
:1021C0002046F8BD2DE9FF4FDFF85CA2054685B03B
:1021D0009AF82500914688464FF0FF3BC0BBB8F106
:1021E000000F35D000241FE0281B102800DD102030
:1021F00086B208EB04073A4631462046FFF792FFC5
:1022000030BB6A4631462046FFF7B4FF00BB384674
:102210003246694606F036FF20B16FF0010009B082
:10222000BDE8F08FA01984B2AC42DDD34FEA19208B
:102230008DF810008DF81190DAF80000544604ABC8
:10224000817EDAF804000222007801F04FF808B12C
:102250005846E4E7012084F825000898E08400202F
:10226000DDE7714991F824100170002070474FF0AC
:10227000FF3070474FF0FF3070472DE9F84F6A4C40
:102280000F4604F1160115004FF0FF3B8A464FF050
:1022900000094FF0010877D0B0F5FF5F01D9FF26A4
:1022A00005E0202801D2012601E0C0F3471607B956
:1022B0000127282D6AD8607DF0B994F8240028B150
:1022C0000020FFF77EFE84F8208001E084F8209053
:1022D0005046FFF738FB54481830FFF74CFB524884
:1022E0001A30FFF763FB50481C30FFF779FBA07AE8
:1022F000A0774D48217CC1770020FEF72FFE0020FB
:10230000FFF781F88DF8009020686B4601228178F4
:102310006068007800F0EAFF002837D140208DF88F
:10232000000020686B460122C17B6068007800F0E5
:10233000DDFF50BB8DF800608DF8017020686B46A2
:102340000222017A6068007800F0D0FFE8B9052029
:1023500002F016FC607A072606EBC0008DF800003C
:1023600020686B460122C1796068007800F0BEFFEA
:1023700058B920208DF80000012D08D0052D0AD86D
:1023800040468DF801800DE01DE01FE049E0484621
:102390008DF8019006E0142D01D8022000E0032002
:1023A0008DF80100C0B206EB80108DF801002068A6
:1023B0006B460222817C6068007800F097FF28B9A4
:1023C00084F8158027E000200A5C3AB3FF202072D1
:1023D0006072E0724FF6FF71E181A072207484F8A0
:1023E0000C80A07FFEF748FEE08AFFF7D0F8207E41
:1023F000FFF79CF8608BFEF7D3FFA08BFFF75CF82C
:10240000E07FFEF7A3FF94F8200010B10120FFF752
:10241000D8FD84F815900020BDE8F88F401C0C28EA
:10242000D2D35846F8E700005C0000202DE9FE4FAB
:1024300080460F460025684600F08FF800246FF0B4
:102440000F0AE946012658F8240057F82410401ACC
:1024500000D5404207F019F8514606F0F1FE59F850
:10246000241011F0FF4F0BD006F0ACFE4FF07E5160
:1024700006F070FE604920F00040884205DC07E06D
:102480005E4908445E49884202D306FA04F00543D7
:10249000641C032CD7DB2846FEE42DE9F84F824666
:1024A00058488946002540686B46032200780D2174
:1024B00000F045FF08B10720AEE79DF800000024BA
:1024C00000F01F008DF800009DF801006F4600F03D
:1024D0001F008DF801009DF802004FF0010800F088
:1024E0001F008DF802005AF8241059F82400081A29
:1024F00000D5404206F0C9FF6FF00F0106F0A0FEC4
:102500000646385DE0B1404ADFF800B104E05946C4
:10251000104606F025FE0246385D401E10F0FF0012
:102520003855F4D11146304606F04CFE4FF07E513E
:1025300006F010FE304920F00040884205DC07E03C
:1025400033483044B0F1D97F02D908FA04F005438A
:10255000641C032CC7DB28465EE72DE9FC470546D3
:1025600028486B46042240680D21007800F0E7FE01
:1025700010B10720BDE8FC879DF800001C2101EA8E
:10258000D0029DF80300DFF88C90C0F301131A43CA
:102590008DF804209DF80120C0F3810301EAD202E6
:1025A0001A438DF805209DF8022000F0030001EA8F
:1025B000D20101430024184F8DF80610A04601AE49
:1025C000305D10B145F8249009E045F824800CE016
:1025D00055F82400394606F0C3FD45F82400305D67
:1025E000401E10F0FF003055F2D1641CE4B2032C01
:1025F000E6D30020BEE70000295C0F3E666666C198
:102600009A99D9005C0000200000C84154E3853F3E
:102610000000E0BE7B14AE3E1D5A843FC8234FF439
:102620008062FE4940F6F630FFF7CCBD2DE9FF4150
:102630000446FBA002AB00680290FAA00068039079
:10264000F9A00668F9A0056804F00300195C8DF88C
:102650000010C4F3C1015A5C8DF80120C4F381124B
:102660009B5C8DF8023003AB185C8DF80400585C5D
:102670008DF80500985C8DF806006A46032140F24B
:102680002640FFF74FFD4FF0FF37E0BB01AA0321C3
:1026900040F22A40FFF746FDA8BBCDE90065600780
:1026A0000BD59DF8000040F001008DF800009DF86A
:1026B000040040F001008DF80400A0060BD59DF841
:1026C000010040F001008DF801009DF8050040F088
:1026D00001008DF80500E0050BD59DF8020040F0E3
:1026E00001008DF802009DF8060040F001008DF811
:1026F00006006A4603214FF48860FFF713FD10B906
:1027000001AA032100E004E040F23140FFF70AFD96
:1027100018B1384604B0BDE8F081C54804810020F6
:10272000F8E7F8B5C249098901F0030250F82240E0
:102730004A0700D56442C1F3C10250F822308A062C
:1027400000D55B42C1F3811250F82220C80500D5A4
:102750005242B84984FB0140850045EA947083FBEE
:10276000014382FB0121950F45EA8105010E8DF899
:102770000010010C8DF80110010A8DF80210A40F51
:102780008DF8030044EA83046A4604214FF4747010
:10279000FFF7C8FC4FF0FF3688B9200E8DF8000017
:1027A000200C8DF80100200A8DF802008DF80340FE
:1027B0006A4604214FF47570FFF7B4FC08B1304647
:1027C000F8BD280E8DF80000280C8DF80100280AAD
:1027D0008DF802008DF803506A4604214FF476709C
:1027E000FFF7A0FCF8BD2DE9FF41054603A8FFF760
:1027F0001FF9BDF80C00460CC7038D48018901F094
:10280000030055F82020480700D55242C1F3C1000B
:1028100055F82040880600D56442C1F3811055F870
:102820002030C80500D55B42A2FB0715D01700FB7E
:10283000075002FB0600820042EA9170A4FB0725C4
:10284000E11701FB075104FB06118C0044EA927169
:10285000A3FB0745DA1702FB075203FB062293008E
:1028600043EA9472030E8DF80030030C8DF80130AA
:10287000030A8DF802308DF80300080E8DF804006D
:10288000080C8DF80500080A8DF80600100E8DF86A
:102890000800100C8DF80900100A8DF80A008DF858
:1028A00007108DF80B206A460C214FF42570FFF7B6
:1028B00039FC2FE730B504465FA185B007C98DE824
:1028C00007004FF0FF35C82C16D8C820B0FBF4F134
:1028D000491E080A8DF80C008DF80D1003AA02217C
:1028E00040F21620FFF71EFC30B96A460C2140F674
:1028F000C120FFF717FC10B1284605B030BD4C4889
:1029000084810020F9E74A498989018000207047C5
:102910002DE9FC41054640074FF0FF367CD0B1F56C
:10292000C86F79D8084606F0B9FD464906F04AFC5A
:10293000074601A8FFF71FF89DF80400022806D0FB
:1029400004280DD008282ED0102865D134E00E219F
:10295000384606F075FC06F0BFFD84B23A4907E040
:102960000D21384606F06CFC06F0B6FD374984B2FE
:10297000384606F0F5FB06F0AFFD210A8DF8001091
:1029800080B28DF80140010A8DF802108DF8030025
:10299000E8076C4620D0224602214FF4EA70FFF788
:1029A000C1FBC8BB11E00C21384606F049FC06F01B
:1029B00093FD84B22649DBE70B21384606F040FC44
:1029C00006F08AFD84B22349D2E7A21C02214FF40B
:1029D0009270FFF7A7FBF8B9A8070DD56A46022148
:1029E0004FF4EC70FFF79EFBB0B9A21C02214FF42C
:1029F0009470FFF797FB78B9680731D56A460221D2
:102A00004FF4EE70FFF78EFB30B9A21C02214FF499
:102A10009670FFF787FB1FE01FE00000A4A40008EA
:102A20004CCD6C000CC92C0036567600264666004C
:102A30005C01002009E3CA02FEF2ABC4AAF1DFDFA9
:102A4000BBAFDFDF00004843000040460000C04548
:102A5000000040450000C04410B13046BDE8FC8194
:102A60000020FBE708B500218DF80010C10702D057
:102A700030218DF80010810705D59DF8001041F038
:102A80000C018DF80010400705D59DF8000040F0BE
:102A900003008DF800006A4601214FF4A470FFF78F
:102AA00041FB08BD08B560B1042800D90420401ED0
:102AB0008DF800006A46012140F24F10FFF732FB0B
:102AC00008BD0120F3E70521B0FBF1F008B5010ACC
:102AD0008DF800108DF801006A4602214FF4EF7066
:102AE000FFF720FB08BD0521B0FBF1F008B5010A96
:102AF0008DF800108DF801006A4602214FF4ED7048
:102B0000FFF710FB08BD4FF47A7290FBF2F008B5A6
:102B10004843010E8DF80010010C8DF80110010AD8
:102B20008DF802108DF803006A4604214FF4AE7050
:102B3000FFF7F8FA08BD0521B0FBF1F008B5010A6E
:102B40008DF800108DF801006A4602214FF4AD7037
:102B5000FFF7E8FA08BD0521B0FBF1F008B5010A5E
:102B60008DF800108DF801006A4602214FF4AC7018
:102B7000FFF7D8FA08BD38B504004FF0FF3506D08E
:102B80006A4604214FF45870FFF7F4FA08B128465A
:102B900038BDBDF800009DF8021040BA000440EABC
:102BA00001209DF8031008432060002038BD08B5BF
:102BB000010E8DF80010010C8DF80110010A8DF83E
:102BC00002108DF803006A4604214FF45870FFF795
:102BD000A9FA08BD38B504004FF0FF3506D06A46A3
:102BE00004214FF47170FFF7C5FA08B1284638BDCB
:102BF000BDF800009DF8021040BA000440EA01212F
:102C00009DF80300014301EB81008000206000205B
:102C100038BD1421B0FBF1F008B5010E8DF800109D
:102C2000010C8DF80110010A8DF802108DF80300D7
:102C30006A4604214FF47170FFF774FA08BD08B5B5
:102C400060B120208DF8000028208DF80100302090
:102C50008DF8020038208DF8030004E0A32204213F
:102C6000684606F0E4F96A46042140F69E20FFF724
:102C700059FAFEF7C4FA08BD08B560B1C0208DF856
:102C80000000C2208DF80100C4208DF80200C6208B
:102C90008DF8030004E08B220421684606F0C7F992
:102CA0006A46042140F69820FFF73CFAFEF7A7FA9F
:102CB00008BD0EB54FF4976308B1E9A000E0EBA0A2
:102CC00007C88DE807006A4609211846FFF72AFA67
:102CD0000EBD3EB5044602208DF80000CA208DF8D6
:102CE0000100E3208DF8020009208DF803006A46F8
:102CF00004216820FFF716FAA3208DF80000610672
:102D000009D5C0218DF80110C8218DF80210C2210B
:102D10008DF8031005E08DF801008DF802008DF8A4
:102D2000030014F4C07F09D0C4218DF80410CC2115
:102D30008DF80510C6218DF8061005E08DF8040009
:102D40008DF805008DF806008DF808008DF8070055
:102D50008DF809006A460A2140F6A720FFF7E2F93C
:102D6000A0074FF0D80503D020208DF8000001E027
:102D70008DF800506A46012140F6B620FFF7D2F9DF
:102D8000A00601D5012000E00020FFF792FF14F417
:102D9000C07F1ED0E0050AD5B2208DF800008B2040
:102DA0008DF80100B6208DF802009B2009E0B020CC
:102DB0008DF8000080208DF80100B4208DF802000D
:102DC00090208DF803006A46042140F6A220FFF708
:102DD000A9F9E0074FF40B6323D0F8208DF8000029
:102DE0006A4601211846FFF79DF9FA210720FFF7EF
:102DF0008FFD0720FFF736FE0120FFF753FE64200A
:102E0000FFF761FE4FF4FA70FFF76DFEC8219A4894
:102E1000FFF779FE2820FFF78EFE0A20FFF79BFEC2
:102E200006E08DF800506A4601211846FFF77AF94E
:102E3000A00703D5D9208DF8000001E08DF80050DF
:102E40006A46012140F23D70FFF76CF9600701D539
:102E5000012000E00020FFF70FFFE00601D5012070
:102E600000E00020FFF7EBFE844D44F0080068818D
:102E7000FEF7C5F90020A873600601D50620A873E7
:102E800014F4C07F02D0A87B801DA87314F0140F27
:102E900002D0A87B1030A873A00702D0A87B001D29
:102EA000A87300203EBD7549498901800020704704
:102EB00000B573A187B00EC98DE80E0073A10DF1A6
:102EC0000C0C0EC98CE80E0040F68223012807D0B6
:102ED000022803D04FF0FF3007B000BD6A4600E083
:102EE00003AA0B211846FFF71DF9F5E72DE9FF4F5F
:102EF00089B01646DDE916520024DFF880810F46BE
:102F000081462C80A24698F80E006946FEF788FE9E
:102F10004FF0FF3B18B158460DB0BDE8F08FB8F840
:102F20000A0010F0140F4CD0BDF800109DF80220DC
:102F300049BA090441EA022C9DF803104CEA010C3D
:102F4000C6F800C0BDF804109DF8062049BA09046F
:102F500041EA02239DF807100B437360BDF8081087
:102F60009DF80A2049BA090441EA02219DF80B2084
:102F70001B141143B160BDF80C209DF80E4052BAED
:102F8000120442EA04229DF80F4009142243F26021
:102F90004FEA2C4612147643494303FB036302FBBA
:102FA000021119441024A1F17061B1F1007F04D91C
:102FB000FEF725F9A5F800A0ADE7298841F4807156
:102FC000298041066A460ED51119A41D0B885BBAEB
:102FD0003B804B885BBA7B80898849BAB980298855
:102FE00041F00801298010F4C07F11D01119A41DEF
:102FF0000B885BBAA9F800304B885BBAA9F802309D
:10300000898849BAA9F80410298841F070012980FB
:10301000800718D01444E07800F0C00500F03F01AC
:103020006078C00707D0C80801F00701D8F8002071
:10303000491C02B190476078000704D5D8F8041005
:1030400009B1A80988470C98FEF770FB002063E7D8
:103050000A4908600020704708494860002070470E
:10306000B8AAB38DB4980D355D000000B8AAAAAA1D
:10307000B088C3C5C700000009E3CA025C01002094
:10308000D8B1B9F38BA391B609B4D900DAB1B9F3C9
:103090008BA391B6DAB4DA00022001F059BD38B53D
:1030A0000121082002F01DF90121092002F019F97F
:1030B0000121F84801F0B8FFC020ADF80000102051
:1030C0008DF803000320F44C8DF802006946204679
:1030D00001F01FFF8021204601F087FFC02120461C
:1030E00001F081FF38BD70B5EB48016821F07041F7
:1030F0000160016841F040510160E84C0120C4F8D2
:103100009C01D4F81C1151B1C4F89801022001F0BF
:103110001FFD0025C4F89C51D4F81C0108B1002003
:1031200070BD022001F014FDC4F89851012070BD5B
:10313000D94810B5016821F070410160016841F083
:1031400040510160D54C0020C4F89801C4F89C019E
:10315000022004F5CC7401F0FBFC012020606060CB
:10316000BDE81040022001F0F3BC70B5CA4800244D
:10317000016821F070410160016841F00041016087
:10318000C64D0126C5F89C61022001F0E1FCC5F89E
:10319000986107E0641CE4B2642C03D9FFF7C8FF10
:1031A000002070BD022001F0D3FCD5F81C010028DE
:1031B000F0D1C5F89801012070BD70B5B74C00255D
:1031C000C4F89851B448016821F070410160016869
:1031D00041F040510160C4F89C51022004F5CC74C8
:1031E00001F0B6FC01202060022001F0B1FC256056
:1031F00070BD70B5A94C0026C4F89861A648016856
:1032000021F070410160016841F0405101600125E9
:10321000C4F89C51022004F5CC7401F099FC25609F
:10322000022001F095FC266070BD2DE9F0410546B5
:103230009948016821F070410160016841F04051F6
:103240000160964E0027C6F898713C464FF0010881
:10325000280602D5C6F89C8101E0C6F89C71680674
:10326000050E022001F074FCC6F89881022001F0DE
:103270006FFCC6F89871022001F06AFC641CE4B28D
:10328000082CE5D3BDE8F0812DE9F047814682485E
:103290000024016821F070410160016841F00041A3
:1032A00001607E4E254627464FF00108C6F898710A
:1032B000022001F04DFCC6F898816006040ED6F895
:1032C0001C0108B1641CE4B2022001F041FC6D1C39
:1032D000EDB2082DEAD3B9F1000F04D0FFF76DFF6E
:1032E0002046BDE8F087FFF784FFF9E72DE9F041BC
:1032F0001D4616460C460746FFF7F5FE68B17806F0
:10330000000EFFF792FFFFF730FF40B12046FFF7B6
:103310008CFFFFF72AFF00240BE00120B2E7FFF744
:1033200007FFFAE7285DFFF780FFFFF71EFF10B1E8
:10333000641CB442F6DBFFF7FBFE0020A2E72DE998
:10334000F0411D4614460F460646FFF7CCFEB0B1CD
:103350007006000EFFF769FFFFF707FF88B13846D8
:10336000FFF763FFFFF701FFFFF7BDFE012000EB52
:103370004600C0B2FFF759FFFFF7F7FE0DE001204E
:1033800080E7FFF7D5FEFAE7012C0CD00120FFF70C
:103390007BFF641E05F8010BE4B2002CF4D1FFF7AB
:1033A000C7FE00206EE70020F1E770B50D46044629
:1033B000FFF799FE2046FFF738FFFFF7D6FE2846B5
:1033C000FFF733FFFFF7D1FEFFF78DFE641CE0B27D
:1033D000FFF72BFFFFF7C9FE0020FFF755FF04465C
:1033E000FFF7A6FE204670BD2DE9F0411D461646AA
:1033F000884607460024FFF776FE3846FFF715FF9C
:10340000FFF7B3FE4046FFF710FFFFF7AEFEFFF7F2
:103410006AFE7F1CF8B2FFF708FFFFF7A6FE771ED3
:1034200009E0BC4201D0012000E00020FFF72CFFA2
:103430002855641CE4B2B442F3D3FFF779FE20466A
:1034400020E72DE9F0411D46164688460746002430
:10345000FFF749FE3846FFF7E8FEFFF786FE4046D5
:10346000FFF7E3FEFFF781FE06E0285DFFF7DDFED4
:10347000FFF77BFE641CE4B2B442F6D3FFF758FEBC
:103480000120FFE610B51446FFF78FFF20700120E2
:1034900010BD000000023000000C014000802142FD
:1034A00007B502AB0122FFF7CCFF0EBD2DE9F843B3
:1034B00014461E460D4680466A46089FFFF7E2FF07
:1034C00000281BD0621CFF2000FA02F1C4F10802A0
:1034D0003244521ED0400143C6F108008740FAB280
:1034E000C4F10700C2409DF80000084010438DF869
:1034F0000000C2B229464046FFF7D2FFBDE8F8837C
:10350000F8B515461C460E4607466A46FFF7BAFF51
:1035100001209DF80010A8400CB1014300E0814358
:10352000CAB28DF8002031463846FFF7B9FFF8BD22
:1035300090F90010002902DD4FF00000704702DA18
:103540004FF00400704790F90110002902DD4FF0A0
:103550000100704702DA4FF00500704790F9020051
:10356000002802DD4FF00200704702DA4FF006003B
:1035700070474FF007007047F0B5FA4FDDE905ECF2
:10358000012507EB450437F8156024F8026CE68A3C
:10359000A682A68D6685B4F84260A4F84060B4F8AF
:1035A0005860A4F856606D1CB4F86E60EDB2A4F8D3
:1035B0006C600A2DE5D378823985FA87A7F85430F4
:1035C000A7F86AE00021A7F880C0084637F9102064
:1035D000401CC0B211440A28F8D30A2291FBF2F031
:1035E000B8820021084607EB4003401CB3F91630AF
:1035F000C0B219440A28F6D391FBF2F07885002175
:10360000084607EB4003401CB3F92C30C0B2194404
:103610000A28F6D391FBF2F0A7F8400000210846F3
:1036200007EB4003401CB3F94230C0B219440A28EA
:10363000F6D391FBF2F0A7F856000021084607EBFD
:103640004003401CB3F95830C0B219440A28F6D3DD
:1036500091FBF2F0A7F86C000021084607EB40034D
:10366000401CB3F96E30C0B219440A28F6D391FB5E
:10367000F2F0A7F88200F0BD08B503230090022203
:103680006B21D020FFF712FF08BD08B50223009080
:1036900004221B21D020FFF709FF08BD08B5022333
:1036A000009004221C21D020FFF700FF08BD034634
:1036B00006226B21D020FFF723BFAA4B10B50E3B8B
:1036C00001227521D020FFF78FFEA6480E38007822
:1036D00010BD10B5FFF7F1FF682801D0002010BD24
:1036E000012010BD034605226A21D020FFF708BF44
:1036F000034601223721D020FFF702BF10B5022078
:10370000FFF7BAFF0320FFF7C0FF0020FFF7C6FF57
:103710000020FFF7CCFF0020FFF7E4FFBDE81040DA
:103720000020E5E738B5002000906B4601227521A6
:103730006820FFF704FE9DF80000682809D08A4839
:1037400001688A4A01F4E06111430160BFF34F8FC1
:10375000FEE7FDF750FF002828D17820FDF78CFC0C
:103760007820FDF7F3FD3220FDF7A6FEFEF756FFA9
:103770007F480446FFF7DCFE0546E01CFFF7D8FE55
:1037800045EAC005A01DFFF7D3FE45EA801080B2D0
:10379000FEF74CFF40F27310FFF79BFA3220FFF761
:1037A00089F800F043F90120FEF70BFC38BD2DE944
:1037B000F74F88B06E4C8246203C07A8CDE9004008
:1037C0008B4604F11A0106AB02AA881FFFF78EFB95
:1037D0002088C0057ED5029805F057FE6FF01D07C2
:1037E000394605F02DFD06466060039805F04DFE54
:1037F000394605F025FD8046A060049805F045FE99
:10380000394605F01DFD0546E060059805F03DFED2
:10381000394605F015FD074620610121304605F0C7
:103820000FFD294605F09CFC05464FF04046314609
:10383000404605F095FC394605F092FC294605F016
:1038400037FC05F05DFE06F0C9FADFF828914FF06D
:10385000663842464B4605F0A6FD05F064FECAF800
:103860000000E0680121054605F0EAFC8246294691
:1038700005F076FC0546A0683146074605F070FC69
:10388000394605F06DFC294605F064FC4FF07E5189
:1038900005F00EFC05F034FE05460E460121606879
:1038A00005F0CEFC394605F05BFC07465046216921
:1038B00005F056FC394605F0FBFB05F021FE3346CA
:1038C0002A4606F0D3FC42464B4605F06CFD05F057
:1038D0002AFE00E042E0CBF8000021690191084691
:1038E00005F03EFCE16807460846009105F038FC0B
:1038F000A16806468B46584605F032FC61680546CD
:103900008A46504605F02CFC294605F0D1FB31468D
:1039100005F020FC394605F01DFC05F0F1FD0446DC
:103920000D465046019905F01BFC06465846009985
:1039300005F016FC314605F0BBFB012105F080FCCB
:1039400005F0DEFD22462B4606F090FC42464B4633
:1039500005F029FD05F0E7FD0A9908600BB0BDE808
:10396000F08F00007A0100200CED00E00400FA0561
:10397000A800002066A64C4010B54221D020FFF7D9
:1039800014FD04464121D020FFF70FFD04EB002079
:1039900005F084FDB0F18E4F03DD4FF08F4105F04F
:1039A000D9FB414905F00EFC05F0AAFD3F4A404B0A
:1039B00005F052FC00223F4B05F0F5FC05F0B3FD8D
:1039C000BDE8104005F06FBD1FB50121084601F0AC
:1039D00088FC0121082001F084FC2024ADF80C4073
:1039E00048208DF80F0003A9334801F092FA052111
:1039F000012001F042FB00208DF804000C2000940F
:103A00008DF8050001248DF80640684602F0D2FBCF
:103A100017208DF8080002208DF809008DF80A4063
:103A20008DF80B4002A801F0CAF91FBD10B588B08F
:103A300002A905A8FEF701FB072832D16846FDF769
:103A4000E1FF059805F021FD00990C4605F088FB83
:103A500005F029FD0590069805F017FD214605F0B3
:103A60007FFB05F020FD0690079805F00EFD21462E
:103A700005F076FB05F017FD079005A8FEF751FE4F
:103A800001A8FDF7D5FFBDF804000299414302915A
:103A90000399414303910499414302A80491FEF71D
:103AA000A2FE08B010BD00000000AA43A4703D0AA9
:103AB000D743424000002440000C014010B50446AA
:103AC000FFF711FB7820FFF7B0FBFFF74EFB00205C
:103AD000FFF7ABFBFFF749FB2046FFF7A6FBFFF71D
:103AE00044FBBDE81040FFF723BB10B50446FFF7C9
:103AF000FAFA7820FFF799FBFFF737FB4020FFF732
:103B000094FBFFF732FB2046FFF78FFBFFF72DFBFF
:103B1000BDE81040FFF70CBB01B1E6E7CEE770B59A
:103B2000FE4E072505F1B000C0B20021FFF7F4FFFB
:103B300000210846FFF7F0FF00211020FFF7ECFFFF
:103B4000002406EBC4000121405DFFF7E5FF641C83
:103B5000802CF6DB6D1EE5D570BD10B50446B03186
:103B6000C8B20021FFF7D8FF102040EA141000214E
:103B7000FFF7D2FF04F00F00BDE8104040F0010055
:103B80000021C9E710B500218D20FFF7C5FF0021F6
:103B90001420FFF7C1FF0021BDE81040AF20BBE7B4
:103BA00010B500218D20FFF7B7FF00211020FFF78F
:103BB000B3FF0021BDE81040AE20ADE730B40021D6
:103BC000D64B0A46002003EBC004401CC0B262542E
:103BD0008028F8D3491CC9B20829F3D330BC9EE72A
:103BE0000346012000E05843491EC9B2FBD270478A
:103BF00010B57F2816D83F2914D80723A3EBD1038B
:103C000001F00701C1F107040121A140C34CDBB25F
:103C100004EBC000002AC25CC9B201D00A4300E034
:103C20008A43C25410BD2DE9F0411E4694460F460A
:103C30000546DDF818800CE03C4606E04246214689
:103C40002846FFF7D5FF641CE4B2B442F6D96D1CD8
:103C5000EDB26545F0D9BDE8F08118B5002A039CA6
:103C60000AD0002B08D00B4402445B1E521EDBB26C
:103C7000D2B20094FFF7D7FF18BD2DE9FC4F002604
:103C8000121AD2B25FEA020AA3EB0102354602F031
:103C9000FF094FFA80F84FFA81FC01D0012000E0C3
:103CA00000200090B9F1000F01D0012000E00020B9
:103CB00083464946CA4501D9544600E00C460027D0
:103CC000601C019020E00CF0FF0108F0FF000B9A4F
:103CD000FFF78EFF06EB0A00C6B205EB0900C5B27E
:103CE000A64206D9301B0099C6B208EB01004FFA74
:103CF00080F8A54205D9281BC5B20CEB0B004FFA82
:103D000080FC7F1C0198FFB28742DCD9BDE8FC8FA4
:103D10002DE9F041904610B1421ED6B200E00646B1
:103D200011B14A1ED5B200E00D46871C01F1020C0C
:103D30000CE0344606E0424629462046FFF758FF8D
:103D4000641CE4B2BC42F6D36D1CEDB26545F0D301
:103D500081E708B5002A0AD07F2808D83F2906D86D
:103D60000A44521E0093D3B20246FFF75CFF08BD1F
:103D700008B5002A0AD07F2808D83F2906D802446F
:103D8000521E0093D2B20B46FFF74DFF08BD2DE93E
:103D9000FF4F07460E4640F2C32050434FF47A715E
:103DA000B0FBF1F0401C1FFA80F802FB02F000EBC0
:103DB00052001FFA80FB14465006020E391BC8B28F
:103DC0003146039BFFF7D4FF012539E005FB05F0E1
:103DD00004FB040159451BDD444517D96800A0F1D7
:103DE00002093019C1B2781B00F1010A09F0FF0283
:103DF0000AF0FF00039BFFF7BBFF301BC1B209F0C5
:103E0000FF020AF0FF00039BFFF7B2FF641EA4B29B
:103E100070194FEA440AC1B2A7EB04090AF0FF0285
:103E200009F0FF00039BFFF7A3FF701BC1B20AF06C
:103E3000FF0209F0FF00039BFFF79AFF6D1CADB274
:103E40004545C3D9BDE8FF8F2DE9FF4F86B0064633
:103E5000DDF84C801F46B24270D807998F426DD86A
:103E600002FB02F00190784300FB07F101EB5000E8
:103E700080B21446A146002502905DE001D10024E5
:103E800012E0019805FB05F1484382B207FB07F1F8
:103E900001E0641EE4B204FB04F001FB002080B2E8
:103EA00014B1029B9842F4D8D5B30798CDF800809E
:103EB000A0EB050B301BC2B203900BF10100C1B2A5
:103EC0000490A6EB090005900BF0FF03C0B2FFF7CA
:103ED000D4FE0798CDF8008000EB050A03980AF09D
:103EE000FF03C2B2AAF10100C1B203900598C0B2AB
:103EF000FFF7C3FE04980BF0FF0306EB040BC1B2FF
:103F0000B1440BF0FF02CDF8008009F0FF00FFF78D
:103F1000B4FE0AF0FF030BF0FF0202E0FE010020F6
:103F200007E00398CDF80080C1B209F0FF00FFF769
:103F3000A4FE6D1CA146EDB2BD429FD90AB0BDE8FA
:103F4000F08F2DE9F8411D46079C16468846074626
:103F50000B460094FFF791FE3A462B464146104629
:103F60000094FFF78AFE2B463246194638460094E5
:103F7000FFF783FE32462B46414610460094FFF77A
:103F80007CFEBDE8F8812DE9FF4F844600241546EC
:103F9000032081B00F46A0EB450046B255E0781BE8
:103FA000C1B20CEB0409009009F0FF00049AFFF77E
:103FB0001FFEA7EB040B0CEB05080BF0FF0108F04C
:103FC000FF00049AFFF714FE07EB040A0AF0FF0152
:103FD00008F0FF00049AFFF70BFE07EB050808F056
:103FE000FF0109F0FF00049AFFF702FEACEB0409A1
:103FF00008F0FF0109F0FF00049AFFF7F9FDACEBB0
:1040000005080AF0FF0108F0FF00049AFFF7F0FD31
:104010000098049AC1B209F0FF00FFF7E9FD0BF028
:10402000FF0108F0FF00049AFFF7E2FD641CE4B210
:10403000002E03DA06EB8400801DAEE7601B06EB62
:1040400080000A306D1E46B2EDB2AC42A7D905B071
:1040500075E72DE9F04F82461E460F468946580700
:1040600000D0012000EBD60071084843203A00F050
:10407000FF0B02F0FF08002539E00C2E0FD0102EA8
:1040800011D0182E35D1B84908EBC80001EB8000DB
:104090004FF0000C445D200609D5099A0AE008EBB0
:1040A0004800B249F2E7B24901EB0810F0E709987D
:1040B00090B1002239465046FFF79AFD60067F1CFA
:1040C000040EFFB2A7EB0900B04207D10AF10100CC
:1040D0004F4600F0FF0A08E00122EBE70CF1010C6B
:1040E0000CF0FF0CBCF1080FD5D36D1CEDB25D4593
:1040F000C3D324E72DE9FF4F81B00027DDF838B0A6
:104100001D46924680463C464FF001094FEA5B0649
:1041100027E0281B401EC1B20A20FFF761FDBAFB51
:10412000F0F00A21B0FBF1F201FB120027B9691E81
:104130008C4201DA48B101273030C2B206FB04805C
:10414000C0B25B46CDF8009006E006FB0480C0B22A
:104150005B462022CDF800900299FFF77AFF641C9D
:10416000E4B2AC42D5D372E72DE9F84F04461F46BE
:10417000802016460D46A0EB5709C3F140084FF0CA
:10418000010A16E0A14502D20024E819C5B2A845EB
:1041900003DA00242546FFF711FDCDF800A03278A0
:1041A0003B4629462046FFF754FF04EB5700C4B2B4
:1041B000761C307820385E28E4D9BDE8F88F2DE9E8
:1041C000F04F82461C460F468946580700D0012012
:1041D00000EBD400604300F0FF0B0C2C03D0102C3C
:1041E00001D0182C34D16348002600EB42182DE092
:1041F0000C2C03D0102C01D0182C29D118F8065003
:104200004FF0000C280601D5099A02E0099890B1F8
:10421000002239465046FFF7EBFC68067F1C050E6E
:10422000FFB2A7EB0900A04207D10AF101004F46F7
:1042300000F0FF0A08E00122EBE70CF1010C0CF0A2
:10424000FF0CBCF1080FDDD3761CF6B25E45CFD370
:1042500075E62DE9F0471F4690460E46824600253A
:10426000DDF8209012E031465046FFF776FC5446C8
:1042700008E019F805006D1CADB20121FFF74CFCF8
:10428000641CE4B24445F4D3761CF6B2BE42EAD3D1
:10429000BDE8F08710B5FEF702FF0021AE20FFF762
:1042A0003BFC0021D520FFF737FC00215020FFF711
:1042B00033FC0021A820FFF72FFC00213F20FFF74F
:1042C0002BFC0021D320FFF727FC00210846FFF735
:1042D00023FC00214020FFF71FFC00218D20FFF769
:1042E0001BFC00211420FFF717FC00212020FFF702
:1042F00013FC00210220FFF70FFC0021A120FFF793
:104300000BFC0021C020FFF707FC0021DA20FFF79B
:1043100003FC00211220FFF7FFFB00218120FFF7A3
:10432000FBFB0021EF20FFF7F7FB0021D920FFF76F
:10433000F3FB0021F120FFF7EFFB0021DB20FFF76B
:10434000EBFB00213020FFF7E7FB0021A420FFF763
:10435000E3FB0021A620FFF7DFFB0021AF20FFF7E2
:10436000DBFBBDE8104029E4FEBA00089AB0000863
:104370000EB500085AC8000810B504461023ECA278
:1043800000213220FFF7F0FE24B1012C11D0022CC5
:1043900025D020E00C23E8A212210520FFF7E4FE3F
:1043A0000C23E7A220210520FFF7DEFE0C23E6A266
:1043B0000DE00C23E2A212210520FFF7D5FE0C230D
:1043C000E1A220210520FFF7CFFE0C23E0A22E2141
:1043D0000520FFF7C9FEBDE81040FFF7A0BB0C2386
:1043E000D9A212210520FFF7BFFE0C23D8A220215D
:1043F0000520FFF7B9FE0C23D6A2E8E72DE9F0412E
:104400008EB016460C4607461D464FF00208142291
:10441000D24905A804F0F9FDD0480DF1280C14305C
:104420000EC88CE80E000FC80DF1040C8CE80F00CC
:1044300017B1012F02D008E005A800E00AA810F883
:104440002400C0EBC000801CC4B201A8224610F8B2
:10445000267000EB860039460679404633460095C3
:10446000FFF76FFD761E641E7F1CF3B2E2B2F9B255
:1044700003200095FFF765FDFFF751FB0EB0BDE887
:10448000F081F8B5B54B0E46A3F10C030100D3E95A
:1044900001721C684FF05D0001D0012903D1C4EB0B
:1044A000C4015D31CDB2D4B2FFB223462A463946AB
:1044B0000096FFF746FD641E6D1E7F1CE3B2EAB254
:1044C000F9B25E200096FFF73CFDBDE8F840FFF72B
:1044D00026BB10B507283BD2DFE800F0040E0E1211
:1044E00017212C00082392A207210020FFF73CFE91
:1044F00008239BA23A2126E00C239BA2322102E052
:1045000008239BA203E060201EE008239AA2072153
:104510000020FFF729FE082399A20721F3E70823CB
:1045200097A207216020FFF71FFE0823002195A214
:104530005E2009E0082395A207210020FFF714FE62
:10454000082393A207214E20BDE81040FFF70CBEC0
:1045500010BD38B500250C238FA229461820FFF77F
:1045600003FE0C238CA200212A20FFF7FDFD0C2363
:104570008AA200215A20FFF7F7FD0C2387A2002111
:104580006C20FFF7F1FD864CA078A8422DD0A078D2
:104590000C250095A288002104230846FFF7AAFDF8
:1045A0000095A279022300211E20FFF7A3FD0095AC
:1045B000E279022300213020FFF79CFD009522784C
:1045C000022300214E20FFF795FD0095627802231B
:1045D00000216020FFF78EFD0095A27802230021C4
:1045E0007220FFF787FDFFF79AFA0C236DA21221C4
:1045F0000520FFF7B9FD0C236CA220210520FFF751
:10460000B3FD0C236CA22E210520FFF7ADFD012088
:10461000FFF75FFFBDE83840FFF781BA2DE9F843A7
:10462000684A111F081FFFF7C2F8664C664D083C28
:104630002946206804F094FD04F04EFF00F0FF08C6
:104640002946606804F08CFD04F046FFC7B2294695
:10465000A06804F085FD04F03FFF00F0FF09002191
:1046600010235AA20846FFF77FFD102359A21946CE
:104670000020FFF779FD102358A220210020FFF72A
:1046800073FD206804F00FFF02461025032300216C
:1046900032200095FFF72EFD6426B8FBF6F006FBEE
:1046A00010820223002154200095FFF723FD60684B
:1046B00004F0F9FE02460323102132200095FFF793
:1046C00019FDB7FBF6F006FB1072022310215420EF
:1046D0000095FFF70FFDA06804F0E5FE02460323F6
:1046E000202132200095FFF705FDB9FBF6F106FB0E
:1046F00011920223202154200095FFF7FBFC102388
:1047000038A200214A20FFF72FFD102335A21946B9
:104710004A20FFF729FD102332A220214A20FFF76B
:1047200023FD0220FFF7D5FEBDE8F843FFF7F7B9F8
:104730004D656E750000000074696D650000000035
:10474000646973706C61790067616D6500000000D9
:1047500070776D006D75736963000000A8C800086C
:104760004368616E676500004261636B0000000092
:1047700073746F7020000000416761696E00000073
:1047800042796500496E6974000000004F4B0000DB
:1047900044656C65746500002F0000003A0000005D
:1047A000FE050020636F756E74000000636C6F631C
:1047B0006B5F73657400000074696D655F636861A9
:1047C0006E676500BC0000200000C8425069746339
:1047D000683A0000526F6C6C3A0000005961773AF9
:1047E000000000002E00000030B56423B0FBF3F49D
:1047F000B0FBF3F5E4B203FB1500132C01D96430D0
:10480000C0B200EB90030724B3FBF4F504FB1533AF
:10481000B54D1A440D44800715F8015C2A4492B244
:1048200003D1032901D2521E92B2B2FBF4F004FB71
:10483000102030BD81070CD16421B0FBF1F201FBE7
:10484000120141B94FF4C871B0FBF1F201FB120043
:1048500008B100207047012070472DE9F04101F0B8
:1048600026FDDFF888C20546B0FBFCF3A048A14E48
:104870000188994230D0038040F2B2744FF4B77788
:104880004FF4B6780FE02046FFF7D4FF38B1BB42B3
:1048900002D3A3F5B77304E0641CA4B205E0A3F24D
:1048A0006D13641CA4B24345EDD8B4808E4F002430
:1048B0000C370BE0B088FFF7BDFF08B1012C2ED0FC
:1048C000385D984204D81B1A641CA4B21C2BF1D288
:1048D000641CB4715B1CF371B5FBFCF00CFB105055
:1048E0004FF46161B0FBF1F23270B0FBF1F201FB09
:1048F00012033C22B3FBF2F37370B0FBF1F301FB44
:104900001300B0FBF2F102FB1100B070F279B17943
:10491000B088FFF769FF30720020BDE8F0811D2BE1
:10492000D6D31D3BD0E72DE9F05F99460546DDE97A
:104930000AAB0023A0F2B27090468C46822802D3C4
:104940000120BDE8F09F40F2B2746B4E6B4F08E05F
:104950002046FFF76FFF08B1334400E03B44641C7E
:10496000A4B2AC42F4D3ACF1010C5F4F0CF0FF06E3
:1049700000240C37DFF874C10EE0385D40F2A3214B
:10498000484303EBC0132846FFF754FF10B1012C36
:1049900000D16344641CA4B2B442EED340F2A3211C
:1049A00008FB01F0514903EBC01049420144C9EB37
:1049B0004912C2EB092001EB0011CAEB0A1001EB0E
:1049C000800000EB0B0401214FF0C05000F092FC7E
:1049D000012001F035FD204601F072FC01F0A2FC3F
:1049E000FFF73BFF0020ACE77CB5002401214FF02E
:1049F000C05000F07FFC012001F022FD042001F0F6
:104A0000F0FC45F25005A8423ED001F0C1FC012067
:104A100000F002FC04E0641CE4B20A2000F0B0F8EC
:104A2000412000F082FB0028F5D0FA2C01D30120B0
:104A30007CBD4FF4807000F000FC012000F002FC0F
:104A400001F070FC01F074FC0121084601F018FC33
:104A500001F068FC01F01DFC47F6FF7001F03DFC21
:104A600001F060FC07203721CDE900010246014634
:104A700012234FF4FD60FFF756FF01F011FC2946A9
:104A8000042001F0A7FC07E001F052FC01210846D8
:104A900001F0F6FB01F046FC03208DF80000002039
:104AA0008DF801008DF8020001208DF803006846A2
:104AB00000F085F9FFF7D1FE00207CBD10B5012084
:104AC00001F04FFC08B1FFF7C8FE022001F049FCDD
:104AD00010B1022001F053FC052001F050FCBDE8AC
:104AE000104001F01FBC0000D8C800088051010030
:104AF000C0000020FE0500200085E2018033E101B6
:104B000010B503F063FA012803D0BDE8104004F0AB
:104B1000E0B810BD10B5042000F091F92B482C49E5
:104B20002C4A0068B0FBF1F3B0FBF1F14FF47A705E
:104B300041431370012050804FF0E020026942F0A1
:104B4000020202614161016941F00101016110BD90
:104B500070B54FF0E02500216C691E4AAB691278F0
:104B60005043AA699A42FCD002D2A3EB020302E0AE
:104B7000A4EB02063344194413468142F1D370BDBD
:104B800070B5044603F022FA01280CD0114D688854
:104B9000844203D3B4FBF0F002F0F8FD6888B4FB64
:104BA000F0F100FB11444FF47A706043BDE87040AF
:104BB000CEE770B5054600244FF47A7603E0304620
:104BC000FFF7C6FF641CAC42F9D370BD040000209F
:104BD00040420F00C2000020704760490A88520618
:104BE000FCD55E4AC1B2121D1180704770B50546F2
:104BF00086B0012144F2040000F073FB4FF4007012
:104C0000ADF8100003248DF812401820544E8DF892
:104C1000130004A9304600F07CF93015ADF81000FF
:104C200004208DF8130004A9304600F072F9252005
:104C30008DF814008DF815408DF8164001208DF880
:104C4000170005A800F0BBF80020ADF80400ADF88F
:104C50000600ADF80800ADF80C000C203F4CADF894
:104C60000A0000956946204600F0BAFB012240F296
:104C70002551204600F031FC0121204600F023FCA4
:104C800006B070BD70B5354C40F22551204600F09D
:104C9000DBFC00280ED0204600F06FFC314AC1B288
:104CA0005088030406D444044FF0000306D50A29B3
:104CB00001D0538070BD40F400400DE00D2909D0B3
:104CC000C0F30D04284D401C80B229555080C728E0
:104CD000EFD870BD40F48040508070BD70B5214C5D
:104CE0006088000438D521A11F4804F0B2F91C4D9A
:104CF00028B10221284600F078F9012020701DA17A
:104D0000194804F0A6F928B10821284600F06BF9EB
:104D10000220207018A1144804F09BF928B120212A
:104D2000284600F060F90320207015A10E4804F019
:104D300090F908B10420207013A10B4804F089F900
:104D400008B10520207000206080BDE870404FF45D
:104D50001671054804F072B970BD000000380140BA
:104D600000080140C60000200806002073746F7020
:104D700000000000676F00006261636B00000000CC
:104D80006C6566740000000072696768740000005A
:104D90000648804706480047FEE7FEE7FEE7FEE7D5
:104DA000FEE7FEE7FEE7FEE7FEE7FEE73D0300085D
:104DB000310100082849084328490860704730B588
:104DC0000F23C27801780125F2B1244A126801F15B
:104DD000E02102F4E062C2F5E062120AC2F10404CA
:104DE000D3404278A24084781C401443220181F8C9
:104DF0000024007800F01F018D404009800000F180
:104E0000E020C0F8005130BD01F01F008540480986
:104E1000800000F1E020C0F8805130BD104A114000
:104E200001430E48001F016070470C4A121D002903
:104E3000116801D0014300E08143116070474FF0D9
:104E4000E0210428086903D020F0040008617047BD
:104E500040F00400FAE700000000FA050CED00E065
:104E600080FFFF1F8F4910B5884206D10121042021
:104E700000F049FA002104203BE08B49884206D12A
:104E80000121082000F03FFA0021082031E0874985
:104E9000884206D10121102000F035FA00211020AF
:104EA00027E08349884206D10121202000F02BFA17
:104EB000002120201DE07F49884206D101214020A9
:104EC00000F021FA0021402013E07B49884206D1FE
:104ED0000121802000F017FA0021802009E07749A5
:104EE00088420AD184150121204600F00CFA0021E5
:104EF0002046BDE8104000F006BA10BD10B50121F3
:104F0000084600F000FA0021BDE81040012000F042
:104F1000FAB9F0B5CC78002204F00F03E40601D50D
:104F20008C7823430C784FF00F0C14F0FF0F4FF0E8
:104F3000010E1BD005680E880EFA02F42640A64228
:104F400010D196000CFA06F725EA070703FA06F5D2
:104F5000CE783D43282E02D0482E02D002E0446194
:104F600000E00461521C082AE5D305600A88FF2A84
:104F70001CD94468002202F108060EFA06F50E88D4
:104F80002E40AE420ED196000CFA06F7BC4303FA4F
:104F900006F7CE783C43282E00D14561CE78482EC6
:104FA00000D10561521C082AE5D34460F0BD4FF6DC
:104FB000FF710180022181700421C1707047024697
:104FC000002092680A4200D001207047806880B2B9
:104FD000704702460020D2680A4200D00120704784
:104FE000C06880B2704701617047416170470AB183
:104FF0000161704741617047C160704741F4803280
:105000008261816182618169806970472C4B10B532
:105010001A684FF68074224042EA00100843186074
:1050200010BD2849C8617047F0B5254C002801DA49
:10503000E36900E06368450D2E0185B2C0F30157B6
:10504000B540C0F30342032F05D0C6020AD503269C
:105050009640B34307E023F07062636823F0706307
:10506000636002E0AB4343F0706201B12A43002861
:1050700001DAE261F0BD6260F0BD10B58A0721F08F
:1050800003040F49120F21440F238C6893409C4363
:105090008C608B68904003438B6010BD0949C1F858
:1050A000DC00704700080140000C01400010014086
:1050B0000014014000180140001C01400020014084
:1050C0000000014000002042A548016841F00101B4
:1050D00001604168A34A114041600168A24A114041
:1050E0000160016821F480210160416821F4FE0122
:1050F00041604FF41F018160704799490A6822F4AA
:1051000080320A600A6822F480220A60B0F5803F8B
:1051100007D0B0F5802F03D1086840F4A0200860C4
:105120007047086840F48030F9E7034600205909C9
:105130008B4A01290AD002290AD0516A03F01F02C2
:10514000012393400B4200D0012070471168F5E71E
:10515000116AF3E718B500204FF4A06400903120E5
:10516000FFF7E3FF0099491C0091A14201D00028FC
:10517000F5D03120FFF7D9FF002800D0012018BD5D
:10518000774A116821F0F80141EAC00010607047C9
:10519000764908607047724B5A68084322F47C12C3
:1051A0001043586070477149086670476C4A5168EF
:1051B00021F003010143516070476948406800F0E5
:1051C0000C007047664A516821F0F00101435160BC
:1051D0007047634A516821F4E061014351607047B0
:1051E0005F4A516821F4605141EAC0005060704745
:1051F0005B4A0029517A01D0014300E0814351729A
:1052000070475A49C1F8D8007047554A516821F48F
:1052100040410143516070475149002281F82020EC
:1052200081F82020012802D0042802D1052081F82D
:10523000200070474E490860704749490A6A024396
:105240000A6270474A4944390860704730B5444A99
:105250005168484B11F00C0103D0042901D00829F2
:1052600001D0036012E05168536801F470114FF0EF
:10527000020413F4803F04EB914102D053689B0376
:1052800001D53D4B00E03B4B5943016051680F2372
:1052900003EA1111394B5C5C0168E14041605468DC
:1052A000072505EA14241C5D21FA04F4846054687F
:1052B00005EAD4241B5DD940C1605268032303EA88
:1052C00092322E4B1B1F9A5CB1FBF2F1016130BD93
:1052D000234A0029516901D0014300E08143516113
:1052E00070471F4A0029916901D0014300E08143C2
:1052F000916170471A4A0029D16901D0014300E049
:105300008143D1617047164A0029D16801D0014319
:1053100000E08143D1607047114A0029116901D032
:10532000014300E081431161704711494039086031
:1053300070470E49C86470470949C87170470848EA
:10534000416A41F0807141627047054A0146002080
:1053500092680A4200D00120704701498872704764
:10536000001002400000FFF8FFFFF6FE000042427E
:105370008004424200127A0000093D00D40000205F
:10538000C44910B588420AD101218C032046FFF799
:10539000BAFF2046BDE810400021FFF7B4BFBE4968
:1053A000884202D101214C0410E0BC49884202D15C
:1053B00001218C040AE0BA49884202D10121CC04BF
:1053C00004E0B84988420AD101210C052046FFF7C4
:1053D000A3FF2046BDE810400021FFF79DBF10BD90
:1053E00030B50446008A85B00D464CF6FF71084082
:1053F000E98801432182A0894EF6F3110840A9886B
:105400002A8911436A8902431143A181A08A4FF678
:10541000FF410840A9890143A1826846FFF716FFB2
:105420009C48844201D1039800E00298A1890904B4
:1054300000EBC00101EB0010296801D5490000E034
:105440008900B0FBF1F06422B0FBF2F109010B0915
:105450006FF018056B4300EB8300A3891D044FF028
:10546000320306D503EBC000B0FBF2F000F00700FA
:1054700005E003EB0010B0FBF2F000F00F00084372
:10548000208105B030BD4FF41651016000218180AC
:10549000C18001810C2242818181704710B5028A4E
:1054A0004FF2FF031A400B884C8823438C88C9882D
:1054B0000C4323431343038210BD0021018041802C
:1054C0008180C18070470029818902D041F4005158
:1054D00001E021F400518181704710B5C1F34213FE
:1054E00001F01F040121A140012B07D0022B07D09E
:1054F0001430002A026805D00A4304E00C30F8E7B3
:105500001030F6E78A43026010BD002A828A01D07B
:105510000A4300E08A4382827047028A22F00F0227
:105520000282028A0A4302827047828922F4006260
:10553000828182890A43828170470029818902D051
:1055400041F0020101E021F0020181817047028AED
:1055500022F020020282028A0A4302827047002956
:10556000018A02D041F4804101E021F480410182AE
:105570007047C1F30801818070478088C0F308003C
:105580007047818941F0010181817047028BD2B25D
:105590000283028B42EA012101837047028B02F4ED
:1055A0007F420283028B0A43028370470029818A6B
:1055B00002D041F0200101E021F0200181827047FA
:1055C0000029818A02D041F0100101E021F0100190
:1055D000818270470029818A02D041F0080101E0F0
:1055E00021F00801818270470029818902D041F4AD
:1055F000004101E0C1F30E01818170470029818AD9
:1056000002D041F4006101E021F400618182704721
:10561000828A22F004028282828A0A43828270474E
:105620000029818A02D041F0020101E021F002014B
:10563000818270470246002012880A4200D0012071
:105640007047C9430180704770B501F01F050126FE
:105650000024C1F3421306FA05F2012B0FD0022BEE
:105660000FD0838A4FEA11210088134206FA01F60F
:1056700000EA060001D000B10124204670BD8389F4
:10568000F0E7038AEEE70A0A01219140C94301804D
:1056900070470000003801400044004000480040CE
:1056A000004C004000500040F94910B5884202D13A
:1056B0000121C41486E0B0F1804F09D0F549884239
:1056C0000DD101210220FFF727FE0021022064E016
:1056D00001210846FFF720FE002101205DE0EE4990
:1056E000884206D101210420FFF716FE0021042084
:1056F00053E0EA49884206D101210820FFF70CFE59
:105700000021082049E0E649884206D10121102005
:10571000FFF702FE002110203FE0E249884206D157
:1057200001212020FFF7F8FD0021202035E0DE498F
:10573000884202D10121441444E0DC49884202D16C
:105740000121CC043EE0DA49884202D101210C0556
:1057500038E0D849884202D101214C0532E0D649CF
:10576000884206D101214020FFF7D6FD00214020CC
:1057700013E0D249884206D101218020FFF7CCFDF9
:105780000021802009E0CE4988420AD184150121F8
:105790002046FFF7C1FD00212046BDE81040FFF77D
:1057A000BBBDC849884202D101210C040AE0C649A8
:1057B000884202D101214C0404E0C44988420AD144
:1057C00001218C042046FFF79EFD2046BDE81040D5
:1057D0000021FFF798BD10BD30B50288AC4CB24D2A
:1057E000A0420DD0A8420BD0B0F1804F08D0A94BF9
:1057F000984205D0A84B984202D0A84B984203D1BA
:1058000022F070034A881A43A54B984206D0A54B54
:10581000984203D022F44073CA881A4302808A88CF
:1058200082850A880285A0420AD0A84208D0A54AEB
:10583000904205D0A44A904202D0A44A904201D19D
:10584000097A01860121818230BD30B5028C22F0B7
:1058500001020284028C8388048B22F0020224F06D
:1058600073050C882C430D8915434A882A43884DBB
:10587000A8420BD08C4DA84208D0924DA84205D02A
:10588000914DA84202D0914DA8420DD122F00805B9
:105890004A8923F440732A4322F004058A882A4364
:1058A0008D891D43CB892B4383800483C9888186DE
:1058B000028430BD70B5028C22F010020284028C8A
:1058C0008388048B0D8824F4E6464FF6FF7404EABF
:1058D000052535430E8922F0200204EA06161643F8
:1058E0004A8804EA02123243694EB04202D06E4E38
:1058F000B04215D122F080064A8923F4406304EABD
:105900000212324322F040068A8804EA021232432D
:105910008E8904EA86061E43CB8904EA8303334357
:1059200083800583C9880187028470BD70B5028CAD
:1059300022F480720284028C8388848B0D8824F088
:10594000730425430E894FF6FF7422F4007204EAB3
:10595000062616434A8804EA022232434C4EB042DD
:1059600002D0514EB04215D122F400664A8923F488
:10597000405304EA0222324322F480668A8804EA11
:10598000022232438E8904EA06161E43CB8904EABA
:105990000313334383808583C9888187028470BD64
:1059A00070B5028C22F480520284058C8288838B2D
:1059B0000C8823F4E6464FF6FF7303EA04243443CD
:1059C00025F400560D8903EA053535434E8803EA70
:1059D00006362E432E4DA84202D0334DA84205D1A3
:1059E00022F480458A8903EA82122A4382808483D2
:1059F000C988A0F84010068470BD828B22F44062F2
:105A00008283828B4FF6FF7303EA01210A4382836C
:105A10007047828B22F00C028283828B0A4382833E
:105A20007047028B22F440620283028B4FF6FF73B1
:105A300003EA01210A4302837047F0B5048C24F085
:105A400010040484078B048C4FF6FF7527F473470A
:105A500005EA03333B4305EA02221A430C4B05EAED
:105A6000011698420ED0104B98420BD0B0F1804FE7
:105A700008D0084B984205D0074B984202D0074BFC
:105A8000984225D124F02001314341F0100124E057
:105A9000002C01400004004000080040000C0040C1
:105AA000001000400014004000340140004C014050
:105AB000005001400054014000180040001C00400C
:105AC00000200040004001400044014000480140E7
:105AD00024F0A0030B4343F0100102830184F0BDC6
